:100000000C942A000C943C000C943C000C943C0092
:100010000C943C000C943C000C943C000C943C0070
:100020000C943C000C943C000C943C000C943C0060
:100030000C943C000C943C000C943C000C943C0050
:100040000C943C000C943C000C943C000C943C0040
:100050000C943C0011241FBECFE5D8E0DEBFCDBF1D
:1000600010E0A0E6B0E001C01D92A436B107E1F7B0
:100070000E9419040C9420040C940000DF93CF9389
:10008000CDB7DEB7EAE3F0E08FEF8083E7E3F0E09F
:100090008FEF8083E4E3F0E08FEF8083E1E3F0E033
:1000A0008FEF8083EBE3F0E01082E8E3F0E0108272
:1000B000E5E3F0E01082E2E3F0E01082CF91DF911F
:1000C0000895DF93CF9300D000D000D0CDB7DEB736
:1000D0008A836B834C8381E089838A81843030F406
:1000E0008B81883018F48C81823010F01982E0C046
:1000F0008A81282F30E03E832D838D819E8181303F
:10010000910509F447C02D813E81223031052CF440
:100110008D819E81009771F0CBC02D813E81223070
:10012000310509F467C08D819E818330910509F402
:1001300091C0BEC08C818823A9F4AAE3B0E0EAE3B1
:10014000F0E08081482F8B81282F30E081E090E023
:10015000022E02C0880F991F0A94E2F7809584232B
:100160008C93A6C08C81813009F0A2C0AAE3B0E0D4
:10017000EAE3F0E08081482F8B81282F30E081E096
:1001800090E0022E02C0880F991F0A94E2F7842B98
:100190008C938EC08C818823A9F4A7E3B0E0E7E3B9
:1001A000F0E08081482F8B81282F30E081E090E0C3
:1001B000022E02C0880F991F0A94E2F780958423CB
:1001C0008C9376C08C81813009F072C0A7E3B0E0D7
:1001D000E7E3F0E08081482F8B81282F30E081E039
:1001E00090E0022E02C0880F991F0A94E2F7842B38
:1001F0008C935EC08C818823A9F4A4E3B0E0E4E38F
:10020000F0E08081482F8B81282F30E081E090E062
:10021000022E02C0880F991F0A94E2F7809584236A
:100220008C9346C08C81813009F042C0A4E3B0E0D9
:10023000E4E3F0E08081482F8B81282F30E081E0DB
:1002400090E0022E02C0880F991F0A94E2F7842BD7
:100250008C932EC08C818823A9F4A1E3B0E0E1E364
:10026000F0E08081482F8B81282F30E081E090E002
:10027000022E02C0880F991F0A94E2F7809584230A
:100280008C9316C08C81813099F4A1E3B0E0E1E356
:10029000F0E08081482F8B81282F30E081E090E0D2
:1002A000022E02C0880F991F0A94E2F7842B8C93C8
:1002B000898126960FB6F894DEBF0FBECDBFCF91D1
:1002C000DF910895DF93CF9300D000D000D0CDB759
:1002D000DEB78A836B834C8381E089838A81843093
:1002E00030F48B81883018F48C81823010F01982C0
:1002F000E0C08A81282F30E03E832D838D819E814E
:100300008130910509F447C02D813E8122303105AD
:100310002CF48D819E81009771F0CBC02D813E81A0
:100320002230310509F467C08D819E8183309105AB
:1003300009F491C0BEC08C818823A9F4ABE3B0E07E
:10034000EBE3F0E08081482F8B81282F30E081E0C3
:1003500090E0022E02C0880F991F0A94E2F7809560
:1003600084238C93A6C08C81813009F0A2C0ABE3BA
:10037000B0E0EBE3F0E08081482F8B81282F30E064
:1003800081E090E0022E02C0880F991F0A94E2F7E4
:10039000842B8C938EC08C818823A9F4A8E3B0E0D1
:1003A000E8E3F0E08081482F8B81282F30E081E066
:1003B00090E0022E02C0880F991F0A94E2F7809500
:1003C00084238C9376C08C81813009F072C0A8E3BD
:1003D000B0E0E8E3F0E08081482F8B81282F30E007
:1003E00081E090E0022E02C0880F991F0A94E2F784
:1003F000842B8C935EC08C818823A9F4A5E3B0E0A4
:10040000E5E3F0E08081482F8B81282F30E081E008
:1004100090E0022E02C0880F991F0A94E2F780959F
:1004200084238C9346C08C81813009F042C0A5E3BF
:10043000B0E0E5E3F0E08081482F8B81282F30E0A9
:1004400081E090E0022E02C0880F991F0A94E2F723
:10045000842B8C932EC08C818823A9F4A2E3B0E076
:10046000E2E3F0E08081482F8B81282F30E081E0AB
:1004700090E0022E02C0880F991F0A94E2F780953F
:1004800084238C9316C08C81813099F4A2E3B0E070
:10049000E2E3F0E08081482F8B81282F30E081E07B
:1004A00090E0022E02C0880F991F0A94E2F7842B75
:1004B0008C93898126960FB6F894DEBF0FBECDBF10
:1004C000CF91DF910895DF93CF9300D000D00F92AA
:1004D000CDB7DEB78A836B8381E089838A818430DC
:1004E00010F0198232C08A81282F30E03D832C839E
:1004F0008C819D8181309105D1F02C813D8122300C
:1005000031052CF48C819D81009761F01EC02C81F7
:100510003D812230310581F08C819D8183309105B0
:1005200081F013C0EAE3F0E08B8180830EC0E7E343
:10053000F0E08B81808309C0E4E3F0E08B8180836D
:1005400004C0E1E3F0E08B81808389810F900F90FC
:100550000F900F900F90CF91DF910895DF93CF937D
:1005600000D000D00F92CDB7DEB78A836B8381E0D5
:1005700089838A81843010F0198232C08A81282FC1
:1005800030E03D832C838C819D8181309105D1F0B9
:100590002C813D81223031052CF48C819D81009786
:1005A00061F01EC02C813D812230310581F08C81AB
:1005B0009D818330910581F013C0EBE3F0E08B81E6
:1005C00080830EC0E8E3F0E08B81808309C0E5E31F
:1005D000F0E08B81808304C0E2E3F0E08B818083D4
:1005E00089810F900F900F900F900F90CF91DF9116
:1005F0000895DF93CF9300D000D00F92CDB7DEB730
:100600008A836B8381E089838A81843018F48B81AB
:10061000883010F019826EC08A81282F30E03D8327
:100620002C838C819D818130910549F12C813D8104
:10063000223031052CF48C819D81009761F05AC0E5
:100640002C813D812230310571F18C819D81833077
:100650009105E9F14FC0ABE3B0E0EBE3F0E080815E
:10066000482F8B81282F30E081E090E0022E02C0DD
:10067000880F991F0A94E2F784278C933BC0A8E364
:10068000B0E0E8E3F0E08081482F8B81282F30E054
:1006900081E090E0022E02C0880F991F0A94E2F7D1
:1006A00084278C9327C0A5E3B0E0E5E3F0E08081E8
:1006B000482F8B81282F30E081E090E0022E02C08D
:1006C000880F991F0A94E2F784278C9313C0A2E342
:1006D000B0E0E2E3F0E08081482F8B81282F30E00A
:1006E00081E090E0022E02C0880F991F0A94E2F781
:1006F00084278C9389810F900F900F900F900F900B
:10070000CF91DF910895DF93CF93CDB7DEB72797D1
:100710000FB6F894DEBF0FBECDBF8A836B835D83B7
:100720004C8381E089838A81843038F48B818830DE
:1007300020F48C819D81009711F4198270C08A8108
:10074000282F30E03F832E834E815F814130510559
:1007500059F18E819F818230910534F42E813F8141
:100760002115310569F05BC04E815F814230510532
:1007700079F18E819F818330910509F43DC04FC08E
:10078000EBE3F0E08081282F30E08B81882F90E030
:10079000A90102C0559547958A95E2F7CA01817073
:1007A000EC81FD8180833BC0E8E3F0E08081282F6D
:1007B00030E08B81882F90E0A90102C055954795C4
:1007C0008A95E2F7CA018170EC81FD81808327C0A0
:1007D000E5E3F0E08081282F30E08B81882F90E0E6
:1007E000A90102C0559547958A95E2F7CA01817023
:1007F000EC81FD81808313C0E2E3F0E08081282F4B
:1008000030E08B81882F90E0A90102C05595479573
:100810008A95E2F7CA018170EC81FD81808389812C
:1008200027960FB6F894DEBF0FBECDBFCF91DF91F4
:100830000895DF93CF93CDB7DEB70E943E00FFCF80
:04084000F894FFCF5A
:00000001FF
